:020000040800F2
:1000000000800120AD020008C5010008D3010008EE
:10001000D9010008DF010008E50100080000000028
:10002000000000000000000000000000EB010008DC
:10003000F90100080000000007020008150200088E
:10004000F5020008F5020008F5020008F5020008B4
:10005000F5020008F5020008F5020008F5020008A4
:10006000F5020008F5020008F5020008F502000894
:10007000F5020008F5020008F5020008F502000884
:10008000F5020008F5020008F5020008F502000874
:10009000F5020008F5020008F5020008F502000864
:1000A000F5020008F5020008F5020008F502000854
:1000B000F5020008F5020008F5020008F502000844
:1000C000F5020008F5020008F5020008F502000834
:1000D000F5020008F5020008F5020008F502000824
:1000E000F5020008F5020008F5020008F502000814
:1000F000F5020008F5020008F5020008F502000804
:10010000F5020008F5020008F5020008F5020008F3
:10011000F5020008F5020008F5020008F5020008E3
:10012000F5020008F5020008F5020008F5020008D3
:10013000F5020008F5020008F5020008F5020008C3
:1001400000000000000000000000000000000000AF
:10015000F5020008F5020008F5020008F5020008A3
:10016000F5020008F5020008F5020008F502000893
:10017000F5020008F5020008F5020008F502000883
:04018000F50200087C
:1001840010B5054C237833B9044B13B10448AFF3CD
:1001940000800123237010BD08000020000000002F
:1001A400C803000808B5034B1BB103490348AFF368
:1001B400008008BD000000000C000020C8030008F7
:1001C40080B400AF00BFBD465DF8047B704780B4C7
:1001D40000AFFEE780B400AFFEE780B400AFFEE7F7
:1001E40080B400AFFEE780B400AF00BFBD465DF849
:1001F400047B704780B400AF00BFBD465DF8047B4C
:10020400704780B400AF00BFBD465DF8047B704703
:1002140080B400AF00BFBD465DF8047B70470000AA
:1002240080B500AF00F014F84FF47A7000F022F8B3
:10023400064B1B68DA68054B1B6822F40052DA602F
:100244004FF47A7000F016F8EEE700BF04000020C7
:1002540080B400AF064B1B685A68054B1B6822F438
:1002640070025A6000BFBD465DF8047B704700BF52
:100274000400002080B485B000AF0346FB80FB88F7
:1002840042F6E06202FB03F3FB6002E0FB68013B21
:10029400FB60FB68002BF9D100BF00BF1437BD46DB
:1002A4005DF8047B70470000002103E00B4B5B58B2
:1002B400435004310A480B4B42189A42F6D30A4A77
:1002C40002E0002342F8043B084B9A42F9D300F0C1
:1002D40011F800F053F8FFF7A3FF7047E803000894
:1002E4000000002008000020080000202400002056
:1002F400FEE7000080B400AF1E4BD3F888301D4ADF
:1003040043F47003C2F888301B4A136843F00103B6
:10031400136000BF184B1B68C3F34003DBB2012B0F
:10032400F8D1154A53686FF30103536000BF124BB1
:100334005B68C3F38103DBB2002BF8D10E4B1B685F
:100344000D4A23F0867323F4803313600A4B002292
:100354005A60094B00221A63074B4FF41F029A603C
:10036400044B4FF000629A6000BFBD465DF8047B09
:10037400704700BF00ED00E00010024070B50D4D65
:100384000D4C641BA4100026A64209D10B4D0C4C45
:1003940000F018F8641BA4100026A64205D170BD15
:1003A40055F8043B98470136EEE755F8043B984767
:1003B4000136F2E7E0030008E0030008E003000868
:1003C400E4030008F8B500BFF8BC08BC9E467047BB
:0C03D400F8B500BFF8BC08BC9E4670479E
:0403E000A901000867
:0403E4008501000887
:0803E800001002400014014066
:04000005080002AD40
:00000001FF
