:020000040800F2
:100000000080012081020008C5010008D30100081A
:10001000D9010008DF010008E50100080000000028
:10002000000000000000000000000000EB010008DC
:10003000F90100080000000007020008150200088E
:10004000C9020008C9020008C9020008C902000864
:10005000C9020008C9020008C9020008C902000854
:10006000C9020008C9020008C9020008C902000844
:10007000C9020008C9020008C9020008C902000834
:10008000C9020008C9020008C9020008C902000824
:10009000C9020008C9020008C9020008C902000814
:1000A000C9020008C9020008C9020008C902000804
:1000B000C9020008C9020008C9020008C9020008F4
:1000C000C9020008C9020008C9020008C9020008E4
:1000D000C9020008C9020008C9020008C9020008D4
:1000E000C9020008C9020008C9020008C9020008C4
:1000F000C9020008C9020008C9020008C9020008B4
:10010000C9020008C9020008C9020008C9020008A3
:10011000C9020008C9020008C9020008C902000893
:10012000C9020008C9020008C9020008C902000883
:10013000C9020008C9020008C9020008C902000873
:1001400000000000000000000000000000000000AF
:10015000C9020008C9020008C9020008C902000853
:10016000C9020008C9020008C9020008C902000843
:10017000C9020008C9020008C9020008C902000833
:04018000C9020008A8
:1001840010B5054C237833B9044B13B10448AFF3CD
:1001940000800123237010BD0C000020000000002B
:1001A4009C03000808B5034B1BB103490348AFF394
:1001B400008008BD00000000100000209C0300081F
:1001C40080B400AF00BFBD465DF8047B704780B4C7
:1001D40000AFFEE780B400AFFEE780B400AFFEE7F7
:1001E40080B400AFFEE780B400AF00BFBD465DF849
:1001F400047B704780B400AF00BFBD465DF8047B4C
:10020400704780B400AF00BFBD465DF8047B704703
:1002140080B400AF00BFBD465DF8047B70470000AA
:1002240080B500AF00F018F8094B1B689B6803F019
:100234000103002B05D0074B1B684FF000521A61D5
:10024400F2E7044B1B684FF400521A61ECE700BF5D
:10025400040000200800002080B400AF064B1B6897
:100264005A68054B1B6822F430025A6000BFBD4631
:100274005DF8047B704700BF08000020002103E004
:100284000B4B5B58435004310A480B4B42189A42BB
:10029400F6D30A4A02E0002342F8043B084B9A4290
:1002A400F9D300F011F800F053F8FFF7B9FF7047E5
:1002B400BC030008000000200C0000200C000020FB
:1002C40028000020FEE7000080B400AF1E4BD3F8E6
:1002D40088301D4A43F47003C2F888301B4A1368FF
:1002E40043F00103136000BF184B1B68C3F34003C2
:1002F400DBB2012BF8D1154A53686FF30103536045
:1003040000BF124B5B68C3F38103DBB2002BF8D14F
:100314000E4B1B680D4A23F0867323F4803313605D
:100324000A4B00225A60094B00221A63074B4FF410
:100334001F029A60044B4FF000629A6000BFBD46F2
:100344005DF8047B704700BF00ED00E00010024040
:1003540070B50D4D0D4C641BA4100026A64209D1A6
:100364000B4D0C4C00F018F8641BA4100026A64298
:1003740005D170BD55F8043B98470136EEE755F8B2
:10038400043B98470136F2E7B4030008B4030008BD
:10039400B4030008B8030008F8B500BFF8BC08BCF3
:1003A4009E467047F8B500BFF8BC08BC9E4670472F
:0403B400A901000893
:0403B80085010008B3
:0C03BC0000100240000801400014014045
:04000005080002816C
:00000001FF
