:020000040800F2
:1000000000800120B5020008C5010008D3010008E6
:10001000D9010008DF010008E50100080000000028
:10002000000000000000000000000000EB010008DC
:10003000F90100080000000007020008150200088E
:10004000FD020008FD020008FD020008FD02000894
:10005000FD020008FD020008FD020008FD02000884
:10006000FD020008FD020008FD020008FD02000874
:10007000FD020008FD020008FD020008FD02000864
:10008000FD020008FD020008FD020008FD02000854
:10009000FD020008FD020008FD020008FD02000844
:1000A000FD020008FD020008FD020008FD02000834
:1000B000FD020008FD020008FD020008FD02000824
:1000C000FD020008FD020008FD020008FD02000814
:1000D000FD020008FD020008FD020008FD02000804
:1000E000FD020008FD020008FD020008FD020008F4
:1000F000FD020008FD020008FD020008FD020008E4
:10010000FD020008FD020008FD020008FD020008D3
:10011000FD020008FD020008FD020008FD020008C3
:10012000FD020008FD020008FD020008FD020008B3
:10013000FD020008FD020008FD020008FD020008A3
:1001400000000000000000000000000000000000AF
:10015000FD020008FD020008FD020008FD02000883
:10016000FD020008FD020008FD020008FD02000873
:10017000FD020008FD020008FD020008FD02000863
:04018000FD02000874
:1001840010B5054C237833B9044B13B10448AFF3CD
:1001940000800123237010BD0C000020000000002B
:1001A400D003000808B5034B1BB103490348AFF360
:1001B400008008BD0000000010000020D0030008EB
:1001C40080B400AF00BFBD465DF8047B704780B4C7
:1001D40000AFFEE780B400AFFEE780B400AFFEE7F7
:1001E40080B400AFFEE780B400AF00BFBD465DF849
:1001F400047B704780B400AF00BFBD465DF8047B4C
:10020400704780B400AF00BFBD465DF8047B704703
:1002140080B400AF00BFBD465DF8047B70470000AA
:1002240080B500AF00F018F8094B1B689B6803F019
:100234000103002B05D0074B1B684FF000521A61D5
:10024400F2E7044B1B684FF400521A61ECE700BF5D
:10025400040000200800002080B400AF124B1B688B
:100264009A69114B1B6842F004029A610E4B1B6899
:100274009A690D4B1B6842F020029A610B4B1B6874
:100284005A680A4B1B6822F430025A60074B1B68F9
:100294005A68064B1B6842F440125A6000BFBD46C0
:1002A4005DF8047B704700BF0000002008000020B8
:1002B400002103E00B4B5B58435004310A480B4BBD
:1002C40042189A42F6D30A4A02E0002342F8043B59
:1002D400084B9A42F9D300F011F800F053F8FFF7F5
:1002E4009FFF7047F0030008000000200C0000206E
:1002F4000C00002028000020FEE7000080B400AFBE
:100304001E4BD3F888301D4A43F47003C2F888307A
:100314001B4A136843F00103136000BF184B1B68AA
:10032400C3F34003DBB2012BF8D1154A53686FF3D2
:100334000103536000BF124B5B68C3F38103DBB25C
:10034400002BF8D10E4B1B680D4A23F0867323F45F
:10035400803313600A4B00225A60094B00221A634F
:10036400074B4FF41F029A60044B4FF000629A60EF
:1003740000BFBD465DF8047B704700BF00ED00E0A0
:100384000010024070B50D4D0D4C641BA4100026E6
:10039400A64209D10B4D0C4C00F018F8641BA410B4
:1003A4000026A64205D170BD55F8043B9847013696
:1003B400EEE755F8043B98470136F2E7E8030008F6
:1003C400E8030008E8030008EC030008F8B500BFE0
:1003D400F8BC08BC9E467047F8B500BFF8BC08BC22
:0403E4009E4670477A
:0403E800A90100085F
:0403EC00850100087F
:0C03F00000100240000801400014014011
:04000005080002B538
:00000001FF
